:020000040800F2
:10000000005000202D1600085D130008631300083F
:10001000691300086F130008751300080000000042
:100020000000000000000000000000007B1300083A
:100030008713000800000000931300089F130008B6
:100040007516000875160008751600087516000864
:100050007516000875160008751600087516000854
:100060007516000875160008751600087516000844
:100070007516000875160008751600087516000834
:100080007516000875160008751600087516000824
:100090007516000875160008751600087516000814
:1000A0007516000875160008751600087516000804
:1000B000AD130008751600087516000875160008BF
:1000C00075160008751600087516000875160008E4
:1000D00075160008751600087516000875160008D4
:1000E0007516000875160008751600080000000057
:1000F0000000000000000000000000000000000000
:0C01000000000000000000005FF808F1A3
:10010C0010B5054C237833B9044B13B10448AFF345
:10011C0000800123237010BDCC00002000000000E3
:10012C00483F000808B5034B1BB103490348AFF324
:10013C00008008BD00000000D0000020483F0008EF
:10014C00034613F8012B002AFBD1181A013870470B
:10015C0080B483B000AF7860094A7B6852F82330D2
:10016C00012B06D1064A7B68002142F8231001239B
:10017C0000E0002318460C37BD4680BC704700BF1A
:10018C00E800002080B483B000AF7860094A7B6837
:10019C0052F82330012B06D1064A7B68002142F825
:1001AC002310012300E0002318460C37BD4680BC09
:1001BC00704700BF6001002080B582B000AF002303
:1001CC007B60A2E0554A7B6852F8232054497B6837
:1001DC0041F82320534A7B6852F823204F497B680F
:1001EC0041F823207B68012B08D14FF400714E4855
:1001FC0001F054FD03461A464A4B5A607B68022BA9
:10020C0008D14FF48061484801F048FD03461A4676
:10021C00444B9A607B68032B08D14FF40061424831
:10022C0001F03CFD03461A463E4BDA603C4A7B68C3
:10023C0052F8232039497B6851F823309A4261D116
:10024C00364A7B6852F8232036497B6851F82330B4
:10025C009A4257D1354A7B6852F8232031497B6842
:10026C0051F823309A4228D02E4A7B6852F823202A
:10027C002E497B6841F823202A4A7B6852F82330A8
:10028C00002B0FD12A4A7B68012142F82310294AFE
:10029C007B68642142F82310274A7B68002142F8CE
:1002AC0023102FE0234A7B68002142F82310224AB6
:1002BC007B68002142F8231024E01A4A7B6852F82C
:1002CC002330002B1ED11B4A7B6852F82330002BA5
:1002DC0018DD184A7B6852F823305A1E15497B6882
:1002EC0041F82320134A7B6852F82330002B09D1A4
:1002FC00114A7B68012142F823100E4A7B68322197
:10030C0042F823107B6801337B607B68032B7FF7FB
:10031C0059AF00BF00BF0837BD4680BD100000209C
:10032C0000000020200000200008014030000020C8
:10033C00E80000206C0100206001002080B500AFB7
:10034C00A94B1B68013B032B00F2E08001A252F881
:10035C0023F000BF710300089F0300081D04000870
:10036C009B040008A04B02221A60A04B1B68A04AF9
:10037C0013609E4B1B684FF47A7202FB03F3194611
:10038C00002000F063FF4FF47A71022000F05EFF52
:10039C00BCE0984B1B68012B15D1934B03221A60C0
:1003AC00954B1B68924A1360934B1B684FF47A72FF
:1003BC0002FB03F31946002000F048FF4FF47A715A
:1003CC00022000F043FF8B4B9B68012B0DD1884B17
:1003DC001B68002B04DD864B1B68013B844A1360B1
:1003EC004FF47A71022000F031FF0120FFF7B0FECC
:1003FC000346002B05D07C4B14221A607F4B142231
:10040C001A6000F021FE00F043FE00F059FE7DE082
:10041C00784B1B68012B15D1734B04221A60784B57
:10042C001B68734A1360764B1B684FF47A7202FB9D
:10043C0003F31946002000F009FF4FF47A710220F3
:10044C0000F004FF6B4B9B68012B0DD1684B1B68B4
:10045C00002B04DD664B1B68013B654A13604FF4AF
:10046C007A71022000F0F2FE0120FFF771FE0346C4
:10047C00002B05D05C4B14221A60604B14221A60BE
:10048C0000F0FAFD00F0ECFD00F01AFE3EE0594BD6
:10049C001B68012B15D1544B02221A60534B1B685D
:1004AC00534A1360514B1B684FF47A7202FB03F3EF
:1004BC001946002000F0CAFE4FF47A71022000F0B9
:1004CC00C5FE4C4B9B68012B0DD1494B1B68002B77
:1004DC0004DD474B1B68013B454A13604FF47A71AE
:1004EC00022000F0B3FE0120FFF732FE0346002B82
:1004FC0005D03D4B14221A60404B14221A6000F0B8
:10050C00D3FD00F0ADFD00F0C3FD00BF3B4B1B68FD
:10051C00013B032B00F2F68001A252F823F000BF3E
:10052C003D0500087705000815060008930600082D
:10053C00324B02221A602D4B1B68324A13602B4B34
:10054C001B684FF47A7202FB03F31946032000F088
:10055C007DFE4FF47A71052000F078FE00F0BCFDB2
:10056C0000F0DEFD00F0F4FDCCE0224BDB68012B4B
:10057C0015D1224B03221A601F4B1B68214A1360B2
:10058C001D4B1B684FF47A7202FB03F319460320D0
:10059C0000F05CFE4FF47A71052000F057FE154B0D
:1005AC005B69012B0DD1174B1B68002B04DD154B20
:1005BC001B68013B134A13604FF47A71052000F05D
:1005CC0045FE0120FFF7C4FD0346002B05D00B4B65
:1005DC0014221A60044B14221A6000F07DFD00F006
:1005EC009FFD00F0B5FD8DE040000020480000208C
:1005FC00540000202C0100204C000020440000205E
:10060C005000002058000020434BDB68012B15D113
:10061C00424B04221A60424B1B68424A1360404B07
:10062C001B684FF47A7202FB03F31946032000F0A7
:10063C000DFE4FF47A71052000F008FE364B5B6915
:10064C00012B0DD1374B1B68002B04DD354B1B6880
:10065C00013B344A13604FF47A71052000F0F6FD2B
:10066C000120FFF775FD0346002B05D02B4B142200
:10067C001A602D4B14221A6000F046FD00F038FD74
:10068C0000F066FD3EE0244BDB68012B15D1234BBB
:10069C0002221A60254B1B68224A1360234B1B68ED
:1006AC004FF47A7202FB03F31946032000F0CEFDDF
:1006BC004FF47A71052000F0C9FD174B5B69012BD3
:1006CC000DD1184B1B68002B04DD164B1B68013B2E
:1006DC00144A13604FF47A71052000F0B7FD012025
:1006EC00FFF736FD0346002B05D00C4B14221A6085
:1006FC000D4B14221A6000F01FFD00F0F9FC00F005
:10070C000FFD00BF0A4B1B68064A126811461846BB
:10071C0000F04AFC00BF80BD2C01002044000020EA
:10072C00500000205800002040000020480000200D
:10073C005400002080B500AF774B1B68143B042B92
:10074C0000F22A8201A252F823F000BF6D070008C4
:10075C00A3070008E907000841090008730A00080C
:10076C006D4B16221A6000F051FA42F21071012002
:10077C0000F06CFDFA21022000F068FDFA21032044
:10078C0000F064FD00F024FA644B1B68194602204B
:10079C0000F034FC07E2624B1B68012B05D15E4B69
:1007AC0001221A605F4B01221A600120FFF7D0FC76
:1007BC000346012B0FD1584B16221A6042F21071CE
:1007CC00012000F043FDFA21022000F03FFDFA2148
:1007DC00032000F03BFD00F0FBF9E4E1002000F009
:1007EC0029FC4E4B1B681946022000F007FC4B4BB2
:1007FC001B684D4A1360494B1B684C4A12681146E2
:10080C00184600F0D1FB464BDB68012B03D1FA21D3
:10081C00032000F01BFD424B9B68012B05D100F01F
:10082C0099FEFA21022000F011FD0120FFF790FC47
:10083C000346012B07D1384B17221A6042F2107174
:10084C00012000F003FD0220FFF782FC0346012B80
:10085C001ED1324B1B680133304A13602F4B1B687F
:10086C00632B02DD2D4B00221A6042F21071012025
:10087C0000F0ECFC294B1B681946022000F0BEFB73
:10088C00264B1B68294A12681146184600F08CFB4F
:10089C000220FFF777FC0346002B19D01F4B1B6877
:1008AC0001331E4A13601D4B1B68632B02DD1B4B6F
:1008BC0000221A60194B1B681946022000F09EFB9F
:1008CC00164B1B68194A12681146184600F06CFB4F
:1008DC000320FFF73DFC0346012B14D10F4B1B6883
:1008EC00134A13600C4B15221A6000F08FF9104B51
:1008FC001B680F4A12681146184600F055FB32214E
:10090C00002000F0A3FC064B5B68012B40F04681F5
:10091C00014B15221A6041E140000020F800002034
:10092C002C0100204400002054000020580000201E
:10093C0048000020002000F07DFB9C4B1B681946F2
:10094C00032000F05BFB994B1B68994A1360984B92
:10095C001B68984A12681146184600F025FB964B06
:10096C00DB68012B03D1FA21032000F06FFC924BC2
:10097C009B68012B05D100F00FFEFA21022000F03C
:10098C0065FC0120FFF7E4FB0346012B07D18B4BE1
:10099C0018221A6042F21071012000F057FC02205C
:1009AC00FFF7D6FB0346012B19D1804B1B68013393
:1009BC007E4A13607D4B1B68632B02DD7B4B002250
:1009CC001A607A4B1B681946032000F017FB774B13
:1009DC001B68784A12681146184600F0E5FA0220A6
:1009EC00FFF7D0FB0346002B19D0704B1B6801336B
:1009FC006E4A13606D4B1B68632B02DD6B4B002240
:100A0C001A606A4B1B681946032000F0F7FA674B13
:100A1C001B68684A12681146184600F0C5FA032094
:100A2C00FFF796FB0346012B14D1604B1B68644AFD
:100A3C001360624B15221A6000F0E8F8604B1B68DB
:100A4C00604A12681146184600F0AEFA32210020B6
:100A5C0000F0FCFB584B5B68012B40F0A180574B1E
:100A6C0015221A609CE0002000F0E4FA564B1B683B
:100A7C001946042000F0C2FA534B1B684C4A136011
:100A8C004B4B1B684B4A12681146184600F08CFA07
:100A9C00494BDB68012B03D1FA21032000F0D6FB74
:100AAC00454B9B68012B05D100F098FDFA210220E3
:100ABC0000F0CCFB0120FFF74BFB0346012B08D1C8
:100ACC003E4B15221A6000F0A1F83221002000F0F4
:100ADC00BDFB0220FFF73CFB0346012B19D13A4B1F
:100AEC001B680133384A1360374B1B68632B02DDDC
:100AFC00354B00221A60344B1B681946042000F059
:100B0C007DFA314B1B682B4A12681146184600F0CF
:100B1C004BFA0220FFF736FB0346002B19D02A4B69
:100B2C001B680133284A1360274B1B68632B02DDBB
:100B3C00254B00221A60244B1B681946042000F038
:100B4C005DFA214B1B681B4A12681146184600F0CF
:100B5C002BFA0320FFF7FCFA0346012B14D11A4B96
:100B6C001B681A4A1360154B15221A6000F04EF8D8
:100B7C00164B1B68134A12681146184600F014FAFB
:100B8C003221002000F062FB0B4B5B68012B09D17A
:100B9C000A4B15221A6005E000BF04E000BF02E01A
:100BAC0000BF00E000BF00BF80BD00BFFC00002004
:100BBC0054000020580000202C0100204000002090
:100BCC004C000020480000200001002050000020B4
:100BDC0080B400AF074B1B68074A1360074B1B68B8
:100BEC00074A1360074B1B68074A136000BFBD46DA
:100BFC0080BC704748000020F80000204C0000200A
:100C0C00FC000020500000200001002080B500AF47
:100C1C0000F07CFC00BF80BD80B588B000AF07F150
:100C2C00100300221A605A609A60DA60244B9B69A8
:100C3C00234A43F020039361214B9B6903F020036B
:100C4C00FB60FB681E4B9B691D4A43F004039361D8
:100C5C001B4B9B6903F00403BB60BB68184B9B697F
:100C6C00174A43F008039361154B9B6903F0080383
:100C7C007B607B68002249F2FC01124801F025F8E8
:100C8C0049F2FC033B6101237B610023BB6102231E
:100C9C00FB6107F1100319460A4800F07BFE4FF484
:100CAC0060633B6100237B610123BB6107F110038F
:100CBC001946044800F06EFE00BF2037BD4680BDCB
:100CCC00001002400008014080B500AF124B134ADF
:100CDC001A60114B124A5A600F4B00229A600E4B4D
:100CEC000022DA600C4B4FF480421A610A4B00224E
:100CFC005A61094B00229A61074B0022DA61064BBC
:100D0C0080221A62044801F011F80346002B01D02E
:100D1C0000F096FA00BF80BD7C010020005400401A
:100D2C00A086010080B588B000AF786007F1100391
:100D3C0000221A605A609A60DA607B681B68154A58
:100D4C00934223D1144B9B69134A43F008039361DC
:100D5C00114B9B6903F00803FB60FB68C0233B61EC
:100D6C0012237B610323FB6107F1100319460B4827
:100D7C0000F010FE084BDB69074A43F40013D36103
:100D8C00054BDB6903F40013BB60BB6800BF203765
:100D9C00BD4680BD0054004000100240000C0140D4
:100DAC0080B584B002AF0346FB71FA1D6423009337
:100DBC0001234E21044801F0FDF8012000F0B8FC9D
:100DCC0000BF0837BD4680BD7C01002080B582B0D5
:100DDC0000AF0346FB71FB7943F00C03DBB2184602
:100DEC00FFF7DEFF012000F0A3FC97F9073023F09A
:100DFC000C035BB243F008035BB2DBB21846FFF79F
:100E0C00CFFF012000F094FC00BF0837BD4680BD29
:100E1C0080B584B000AF03460A46FB711346BB7124
:100E2C00FB791B01FB73BB79002B03D0FB7B43F0DD
:100E3C000103FB73FB7B43F00803FB73FB7B18463E
:100E4C00FFF7AEFFFB7B1846FFF7C0FF00BF103764
:100E5C00BD4680BD80B582B000AF0346FB71FB7907
:100E6C001B09DBB200211846FFF7D2FFFB7903F018
:100E7C000F03DBB200211846FFF7CAFF022000F077
:100E8C0057FC00BF0837BD4680BD80B582B000AFAF
:100E9C000346FB71FB791B09DBB201211846FFF7F6
:100EAC00B7FFFB7903F00F03DBB201211846FFF704
:100EBC00AFFF00BF0837BD4680BD80B500AF322004
:100ECC0000F036FC0820FFF76BFF0A2000F030FC26
:100EDC0000210320FFF79CFF052000F029FC0021D6
:100EEC000320FFF795FF052000F022FC00210320D2
:100EFC00FFF78EFF012000F01BFC00210220FFF702
:100F0C0087FF2820FFF7A6FF0C20FFF7A3FF012087
:100F1C00FFF7A0FF022000F00BFC0620FFF79AFF62
:100F2C0000BF80BD80B500AF0120FFF793FF02200A
:100F3C0000F0FEFB00BF80BD80B584B000AF03465F
:100F4C003A60FB710B46BB71FB79002B02D0012B75
:100F5C0003D006E0BB79FB7306E0BB794033FB732F
:100F6C0002E0BB79FB7300BFFB7B63F07F03DBB25A
:100F7C001846FFF76FFF0023BB6009E03A68BB68B7
:100F8C0013441B781846FFF780FFBB680133BB6026
:100F9C003868FFF7D5F80246BB689342EED300BF22
:100FAC0000BF1037BD4680BD80B588B000AF7860FB
:100FBC00396007F10C007B680E4A142102F070FBBB
:100FCC0007F10C031A4600210020FFF7B5FF07F1CB
:100FDC000C003B68084A142102F062FB07F10C0379
:100FEC001A4600210120FFF7A7FF00BF2037BD469E
:100FFC0080BD00BF603F0008703F000880B58AB01C
:10100C0002AF7860396007F10C003B6800937B6895
:10101C00074A142102F044FB07F10C031A46002185
:10102C000120FFF789FF00BF2037BD4680BD00BF00
:10103C00803F000880B483B000AF786000BF0C37ED
:10104C00BD4680BC7047000080B500AF0022042173
:10105C00024800F03AFE00BF80BD00BF000801400E
:10106C0080B500AF01220421024800F02EFE00BF23
:10107C0080BD00BF0008014080B500AF00220821F0
:10108C00024800F022FE00BF80BD00BF00080140F6
:10109C0080B500AF01220821024800F016FE00BF07
:1010AC0080BD00BF0008014080B500AF00221021B8
:1010BC00024800F00AFE00BF80BD00BF00080140DE
:1010CC0080B500AF01221021024800F0FEFD00BFE8
:1010DC0080BD00BF0008014080B500AF0022202178
:1010EC00024800F0F2FD00BF80BD00BF00080140C7
:1010FC0080B500AF01222021024800F0E6FD00BFC0
:10110C0080BD00BF0008014080B500AF0022402127
:10111C00024800F0DAFD00BF80BD00BF00080140AE
:10112C0080B500AF01224021024800F0CEFD00BF87
:10113C0080BD00BF0008014080B500AF00228021B7
:10114C00024800F0C2FD00BF80BD00BF0008014096
:10115C0080B500AF01228021024800F0B6FD00BF2F
:10116C0080BD00BF0008014080B500AF00F07EFAE2
:10117C0000F016F8FFF750FDFFF7A6FD00F056F94A
:10118C00FFF79BFEFFF7CEFE044801F0B5FE00F022
:10119C00BDF9FFF7D3F8FFF7CDFAFAE7D00100203D
:1011AC0080B590B000AF07F1180328220021184633
:1011BC0002F06EFA3B1D00221A605A609A60DA60E7
:1011CC001A610123BB614FF48033FB6100233B6246
:1011DC000123BB6202237B634FF48033BB63002388
:1011EC00FB6307F11803184601F03CFA0346002B89
:1011FC0001D000F025F80F237B600223BB60802315
:10120C00FB604FF480633B6100237B613B1D00213D
:10121C00184601F0A7FC0346002B01D000F010F893
:10122C0000BF4037BD4680BD80B582B000AF78604E
:10123C0000F02CF8FEF7C0FF00BF0837BD4680BD9C
:10124C0080B400AF72B600BFFEE7000080B483B07C
:10125C0000AF786039603B68094A82FB0312921038
:10126C00DB17D21A07497B6841F82320064A7B68B2
:10127C00002142F8231000BF0C37BD4680BC7047DC
:10128C0067666666040100202C01002080B483B0E0
:10129C0000AF00237B601CE0124A7B6852F82330BD
:1012AC00002B13DD0F4A7B6852F823305A1E0D4970
:1012BC007B6841F823200B4A7B6852F82330002BC3
:1012CC0004DC094A7B68012142F823107B68013356
:1012DC007B607B68062BDFDD00BF00BF0C37BD4693
:1012EC0080BC7047040100202C01002080B485B024
:1012FC0000AF154B9B69144A43F001039361124BE9
:10130C009B6903F00103BB60BB680F4BDB690E4AA2
:10131C0043F08053D3610C4BDB6903F080537B604B
:10132C007B680A4B5B68FB60FB6823F0E063FB6047
:10133C00FB6843F00073FB60044AFB68536000BF1A
:10134C001437BD4680BC70470010024000000140BD
:10135C0080B400AFFEE780B400AFFEE780B400AF0E
:10136C00FEE780B400AFFEE780B400AFFEE780B4C8
:10137C0000AF00BFBD4680BC704780B400AF00BF5B
:10138C00BD4680BC704780B400AF00BFBD4680BC7A
:10139C00704780B500AF00F0AFF900BF80BD000012
:1013AC0080B500AF024801F0F9FD00BF80BD00BF61
:1013BC00D001002080B586B000AF7860144A154B80
:1013CC00D31A7B617B693B61134B1B68002B02D1E9
:1013DC00114B124A1A60104B1A687B6813443A6915
:1013EC009A4207D202F02AF903460C221A604FF0F7
:1013FC00FF3309E0084B1B68FB60074B1A687B68DE
:10140C001344054A1360FB6818461837BD4680BD67
:10141C000050002000040000540100203002002085
:10142C0080B400AF00BFBD4680BC704780B586B0AD
:10143C0000AF07F1080300221A605A609A60DA6064
:10144C003B4600221A605A601D4B4FF080421A60D6
:10145C001B4B41F63F725A60194B00229A60184B95
:10146C000922DA60164B00221A61154B00229A6190
:10147C00134801F0F1FC0346002B01D0FFF7E0FE0E
:10148C004FF48053BB6007F1080319460C4801F078
:10149C0075FE0346002B01D0FFF7D2FE00233B6004
:1014AC0000237B603B461946054802F057F803467B
:1014BC00002B01D0FFF7C4FE00BF1837BD4680BD1E
:1014CC00D001002080B584B000AF78607B681B68C9
:1014DC00B3F1804F13D10C4BDB690B4A43F0010382
:1014EC00D361094BDB6903F00103FB60FB6800224D
:1014FC0000211C2000F017FA1C2000F030FA00BF6D
:10150C001037BD4680BD00BF0010024080B500AF53
:10151C00012204210E4800F0D8FB012208210C48BE
:10152C0000F0D3FB01221021094800F0CEFB012270
:10153C002021074800F0C9FB01224021044800F09B
:10154C00C4FB01228021024800F0BFFB00BF80BD1C
:10155C000008014080B500AF012208210D4800F0C1
:10156C00B4FB012240210B4800F0AFFB01221021FB
:10157C00084800F0AAFB01228021064800F0A5FBD8
:10158C000421044800F0B9FB2021024800F0B5FB0F
:10159C0000BF80BD0008014080B500AF01220421CE
:1015AC000D4800F092FB012220210B4800F08DFB2E
:1015BC0001221021084800F088FB012280210648F6
:1015CC0000F083FB0821044800F097FB40210248FF
:1015DC0000F093FB00BF80BD0008014080B500AF58
:1015EC00012208210D4800F070FB012240210B481C
:1015FC0000F06BFB01220421084800F066FB01227D
:10160C002021064800F061FB1021044800F075FB16
:10161C008021024800F071FB00BF80BD0008014032
:10162C00FFF7FEFE0B480C490C4A002302E0D4588D
:10163C00C4500433C4188C42F9D3094A094C002312
:10164C0001E013600432A242FBD301F0FDFFFFF76F
:10165C008BFD704700000020CC000020FC3F0008F0
:10166C00CC0000202C020020FEE7000080B500AF6B
:10167C00084B1B68074A43F010031360032000F06B
:10168C0047F90F2000F008F8FFF730FE002318464A
:10169C0080BD00BF0020024080B582B000AF7860F2
:1016AC00124B1A68124B1B7819464FF47A73B3FB22
:1016BC00F1F3B2FBF3F3184600F05FF90346002B8D
:1016CC0001D001230EE07B680F2B0AD80022796829
:1016DC004FF0FF3000F027F9064A7B6813600023B7
:1016EC0000E0012318460837BD4680BD5C00002091
:1016FC00640000206000002080B400AF054B1B7814
:10170C001A46054B1B681344034A136000BFBD46C1
:10171C0080BC7047640000201802002080B400AF29
:10172C00024B1B681846BD4680BC7047180200204F
:10173C0080B584B000AF7860FFF7F0FFB8607B68CD
:10174C00FB60FB68B3F1FF3F05D00A4B1B781A46D0
:10175C00FB681344FB6000BFFFF7E0FF0246BB6869
:10176C00D31AFA689A42F7D800BF00BF1037BD46AB
:10177C0080BD00BF6400002080B485B000AF7860ED
:10178C007B6803F00703FB600C4BDB68BB60BA683B
:10179C004FF6FF031340BB60FB681A02BB68134390
:1017AC0043F0BF6343F40033BB60044ABB68D360AF
:1017BC0000BF1437BD4680BC704700BF00ED00E091
:1017CC0080B400AF044BDB681B0A03F00703184618
:1017DC00BD4680BC704700BF00ED00E080B483B014
:1017EC0000AF0346FB7197F90730002B0BDBFB793D
:1017FC0003F01F02064997F907305B09012000FA34
:10180C0002F241F8232000BF0C37BD4680BC704764
:10181C0000E100E080B483B000AF03463960FB7197
:10182C0097F90730002B0ADB3B68DAB20C4997F9C1
:10183C0007301201D2B20B4483F800230AE03B6854
:10184C00DAB20849FB7903F00F03043B1201D2B260
:10185C000B441A7600BF0C37BD4680BC704700BFE6
:10186C0000E100E000ED00E080B489B000AFF8606A
:10187C00B9607A60FB6803F00703FB61FB69C3F195
:10188C000703042B28BF0423BB61FB690433062B1D
:10189C0002D9FB69033B00E000237B614FF0FF3270
:1018AC00BB6902FA03F3DA43BB681A407B699A40BE
:1018BC004FF0FF317B6901FA03F3D9437B680B408E
:1018CC00134318462437BD4680BC704780B582B0A0
:1018DC0000AF78607B68013BB3F1807F01D30123BB
:1018EC000FE00A4A7B68013B53600F214FF0FF3039
:1018FC00FFF790FF054B00229A60044B07221A60F9
:10190C00002318460837BD4680BD00BF10E000E03C
:10191C0080B582B000AF78607868FFF72DFF00BF0C
:10192C000837BD4680BD80B586B000AF0346B960B0
:10193C007A60FB7300237B61FFF742FF78617A6862
:10194C00B9687869FFF790FF024697F90F30114696
:10195C001846FFF75FFF00BF1837BD4680BD80B546
:10196C0082B000AF0346FB7197F907301846FFF7BA
:10197C0035FF00BF0837BD4680BD80B582B000AFD3
:10198C0078607868FFF7A2FF034618460837BD4613
:10199C0080BD000080B48BB000AF7860396000234C
:1019AC007B6200233B6269E101227B6A02FA03F34A
:1019BC00FB613B681B68FA691340BB61BA69FB6940
:1019CC009A4240F058813B685B689A4A93425ED0D9
:1019DC00984A934275D8984A934258D0964A934263
:1019EC006FD8964A934252D0944A934269D8944AFB
:1019FC0093424CD0924A934263D8924A934246D037
:101A0C00904A93425DD8122B2AD8122B59D801A296
:101A1C0052F823F09B1A0008751A0008871A000860
:101A2C00C91A0008CF1A0008CF1A0008CF1A0008EC
:101A3C00CF1A0008CF1A0008CF1A0008CF1A0008D6
:101A4C00CF1A0008CF1A0008CF1A0008CF1A0008C6
:101A5C00CF1A0008CF1A00087D1A0008911A000846
:101A6C00794A934213D02CE03B68DB683B6229E057
:101A7C003B68DB6804333B6224E03B68DB6808337B
:101A8C003B621FE03B68DB680C333B621AE03B684F
:101A9C009B68002B02D104233B6213E03B689B68DC
:101AAC00012B05D108233B627B68FA691A6109E0B6
:101ABC0008233B627B68FA695A6103E000233B62AE
:101ACC0000E000BFBB69FF2B01D87B6801E07B689D
:101ADC0004337B61BB69FF2B02D87B6A9B0002E05D
:101AEC007B6A083B9B003B617B691A680F213B6951
:101AFC0001FA03F3DB431A40396A3B6901FA03F339
:101B0C001A437B691A603B685B6803F08053002BB7
:101B1C0000F0B1804D4B9B694C4A43F0010393613B
:101B2C004A4B9B6903F00103BB60BB68484A7B6A64
:101B3C009B08023352F82330FB607B6A03F00303EB
:101B4C009B000F2202FA03F3DB43FA681340FB609D
:101B5C007B68404A934213D07B683F4A93420DD036
:101B6C007B683E4A934207D07B683D4A934201D141
:101B7C00032306E0042304E0022302E0012300E037
:101B8C0000237A6A02F0030292009340FA6813432E
:101B9C00FB602F497B6A9B080233FA6841F82320CB
:101BAC003B685B6803F48013002B06D02D4B9A68BE
:101BBC002C49BB6913438B6006E02A4B9A68BB69BE
:101BCC00DB43284913408B603B685B6803F40013CC
:101BDC00002B06D0234BDA682249BB691343CB6038
:101BEC0006E0204BDA68BB69DB431E491340CB602F
:101BFC003B685B6803F40033002B06D0194B5A6822
:101C0C001849BB6913434B6006E0164B5A68BB6915
:101C1C00DB43144913404B603B685B6803F480332F
:101C2C00002B21D00F4B1A680E49BB6913430B6074
:101C3C0021E000BF00003210000031100000221023
:101C4C0000002110000012100000111000100240C2
:101C5C000000014000080140000C01400010014050
:101C6C0000140140000401400B4B1A68BB69DB43B4
:101C7C00094913400B607B6A01337B623B681A682D
:101C8C007B6A22FA03F3002B7FF48EAE00BF00BFF9
:101C9C002C37BD4680BC70470004014080B485B031
:101CAC0000AF78600B467B807B689A687B8813401A
:101CBC00002B02D00123FB7301E00023FB73FB7BA1
:101CCC0018461437BD4680BC704780B483B000AF53
:101CDC0078600B467B8013467B707B78002B03D09F
:101CEC007A887B681A6103E07B881A047B681A6126
:101CFC0000BF0C37BD4680BC704780B485B000AFC8
:101D0C0078600B467B807B68DB68FB607A88FB68BD
:101D1C0013401A04FB68D9437B880B401A437B6839
:101D2C001A6100BF1437BD4680BC704780B584B0C3
:101D3C0000AF78607B68002B01D101232BE17B681D
:101D4C0093F83D30DBB2002B06D17B68002283F880
:101D5C003C207868FEF7E6FF7B68242283F83D2060
:101D6C007B681B681A687B681B6822F001021A608A
:101D7C007B681B681A687B681B6842F400421A6017
:101D8C007B681B681A687B681B6822F400421A6027
:101D9C0001F030F8F8607B685B68814A934207D8A1
:101DAC00FB68804A934294BF01230023DBB206E018
:101DBC00FB687D4A934294BF01230023DBB2002BC6
:101DCC0001D00123E7E0FB68784AA2FB03239B0CBC
:101DDC00BB607B681B685B6823F03F017B681B68FA
:101DEC00BA680A435A607B681B681B6A23F03F0180
:101DFC007B685B686A4A934202D8BB68013309E08E
:101E0C00BB684FF4967202FB03F3694AA2FB0323EF
:101E1C009B0901337A6812680B4313627B681B6859
:101E2C00DB6923F44F4222F0FF027B685B685C495C
:101E3C008B4219D8FB68591E7B685B685B00B1FB51
:101E4C00F3F3591C40F6FC730B40002B0AD0FB68D3
:101E5C00591E7B685B685B00B1FBF3F30133C3F382
:101E6C000B0351E004234FE07B689B68002B11D1DE
:101E7C00FB68581E7B6859680B465B000B44B0FB33
:101E8C00F3F30133C3F30B03002B0CBF012300232B
:101E9C00DBB212E0FB68581E7B6859680B469B004E
:101EAC000B4499000B44B0FBF3F30133C3F30B0366
:101EBC00002B0CBF01230023DBB2002B01D001232C
:101ECC0022E07B689B68002B0ED1FB68581E7B6858
:101EDC0059680B465B000B44B0FBF3F30133C3F3BF
:101EEC000B0343F400430FE0FB68581E7B685968F2
:101EFC000B469B000B4499000B44B0FBF3F30133EE
:101F0C00C3F30B0343F44043796809681343CB6173
:101F1C007B681B681B6823F0C0017B68DA697B68EF
:101F2C001B6A1A437B681B680A431A607B681B6830
:101F3C009B6823F4034323F0FF037A6811697A68E2
:101F4C00D26811437A6812680B4393607B681B68F4
:101F5C00DB6823F0FF017B685A697B689B691A4335
:101F6C007B681B680A43DA607B681B681A687B68AD
:101F7C001B6842F001021A607B6800221A647B68BD
:101F8C00202283F83D207B6800221A637B680022A4
:101F9C0083F83E20002318461037BD4680BD00BF95
:101FAC00A08601007F841E00FF083D0083DE1B43DA
:101FBC00D34D621080B588B002AFF8607A601A46D3
:101FCC000B467B8113463B81FFF7A8FB7861FB68CE
:101FDC0093F83D30DBB2202B40F0E0807B6900931E
:101FEC00192301227049F86800F064F90346002BAC
:101FFC0001D00223D3E0FB6893F83C30012B01D1D4
:10200C000223CCE0FB68012283F83C20FB681B68B0
:10201C001B6803F00103012B07D0FB681B681A68CF
:10202C00FB681B6842F001021A60FB681B681A68A7
:10203C00FB681B6822F400621A60FB68212283F89B
:10204C003D20FB68102283F83E20FB6800221A64B6
:10205C00FB687A685A62FB683A895A85FB685B8D23
:10206C009AB2FB681A85FB68504ADA6279897B69F7
:10207C003A6AF86800F09CF80346002B01D0012363
:10208C008DE000233B61FB681B685B693B61FB686F
:10209C001B689B693B613B6966E07A69396AF86841
:1020AC0000F022FA0346002B0DD0FB681B6C042BAE
:1020BC0007D1FB681B681A68FB681B6842F4007246
:1020CC001A6001236BE0FB685B6A1A78FB681B687B
:1020DC001A61FB685B6A5A1CFB685A62FB685B8D71
:1020EC009BB2013B9AB2FB685A85FB681B8D013B86
:1020FC009AB2FB681A85FB681B685B6903F00403E2
:10210C00042B1BD1FB681B8D002B17D0FB685B6A63
:10211C001A78FB681B681A61FB685B6A5A1CFB68BF
:10212C005A62FB685B8D9BB2013B9AB2FB685A8585
:10213C00FB681B8D013B9AB2FB681A857A69396A78
:10214C00F86800F019FA0346002B0DD0FB681B6CE5
:10215C00042B07D1FB681B681A68FB681B6842F4E8
:10216C0000721A6001231AE0FB681B8D002B94D1BE
:10217C00FB681B681A68FB681B6842F400721A60E3
:10218C00FB68202283F83D20FB68002283F83E2068
:10219C00FB68002283F83C20002300E00223184651
:1021AC001837BD4680BD00BF020010000000FFFFC5
:1021BC0080B588B002AFF8607A603B600B467B81DB
:1021CC00FB68DB6A7B617B69082B06D07B69012B82
:1021DC0003D07B6913F5803F08D1FB681B681A6834
:1021EC00FB681B6842F480721A600BE0FB681B6B87
:1021FC00122B07D1FB681B681A68FB681B6842F43A
:10220C0080721A603B6800937B6800224FF00111CA
:10221C00F86800F04FF80346002B0DD0FB681B68E4
:10222C001B6803F48073B3F5807F03D1FB684FF414
:10223C0000721A64032335E0FB681B69B3F5804F09
:10224C0008D17B89DBB21A46FB681B6802F0FE02E0
:10225C001A611BE07B89DB11DBB203F00603DBB2F6
:10226C0063F00F03DAB2FB681B681A613B687A688B
:10227C000E49F86800F098F80346002B01D00123B2
:10228C0010E07B89DAB2FB681B681A613B687A68DC
:10229C000749F86800F088F80346002B01D00123A9
:1022AC0000E0002318461837BD4680BD0800010029
:1022BC000200010080B584B000AFF860B9603B60EB
:1022CC001346FB7148E03B68B3F1FF3F44D0FFF786
:1022DC0025FA0246BB69D31A3A689A4202D33B6884
:1022EC00002B39D1BB681B0CDBB2012B0DD1FB6869
:1022FC001B685B69DA43BB6813409BB2002B0CBFB5
:10230C0001230023DBB21A460CE0FB681B689B69B7
:10231C00DA43BB6813409BB2002B0CBF0123002394
:10232C00DBB21A46FB799A4216D1FB6800221A637B
:10233C00FB68202283F83D20FB68002283F83E20B6
:10234C00FB681B6C43F02002FB681A64FB680022DC
:10235C0083F83C20012323E0BB681B0CDBB2012B70
:10236C000DD1FB681B685B69DA43BB6813409BB2F9
:10237C00002B0CBF01230023DBB21A460CE0FB68D8
:10238C001B689B69DA43BB6813409BB2002B0CBFE4
:10239C0001230023DBB21A46FB799A4293D0002327
:1023AC0018461037BD4680BD80B584B000AFF860CC
:1023BC00B9607A603B6071E0FB681B685B6903F491
:1023CC008063B3F5806F23D1FB681B681A68FB68C8
:1023DC001B6842F400721A60FB681B686FF4806221
:1023EC005A61FB6800221A63FB68202283F83D20A7
:1023FC00FB68002283F83E20FB681B6C43F0040250
:10240C00FB681A64FB68002283F83C20012367E018
:10241C007B68B3F1FF3F41D0FFF780F902463B6880
:10242C00D31A7A689A4202D37B68002B36D1BB68E8
:10243C001B0CDBB2012B0CD1FB681B685B69DA430C
:10244C00BB6813409BB2002B14BF01230023DBB2EB
:10245C000BE0FB681B689B69DA43BB6813409BB2BB
:10246C00002B14BF01230023DBB2002B16D0FB681A
:10247C0000221A63FB68202283F83D20FB680022AF
:10248C0083F83E20FB681B6C43F02002FB681A6447
:10249C00FB68002283F83C20012321E0BB681B0C65
:1024AC00DBB2012B0CD1FB681B685B69DA43BB68A0
:1024BC0013409BB2002B14BF01230023DBB20BE0B3
:1024CC00FB681B689B69DA43BB6813409BB2002B0B
:1024DC0014BF01230023DBB2002B7FF46DAF00236C
:1024EC0018461037BD4680BD80B584B000AFF8608B
:1024FC00B9607A6034E0F86800F086F80346002B87
:10250C0001D0012334E0BB68B3F1FF3F28D0FFF7C3
:10251C0005F902467B68D31ABA689A4202D3BB68A3
:10252C00002B1DD1FB681B685B6903F08003802BBB
:10253C0016D0FB6800221A63FB68202283F83D202A
:10254C00FB68002283F83E20FB681B6C43F02002E2
:10255C00FB681A64FB68002283F83C20012307E027
:10256C00FB681B685B6903F08003802BC3D10023DD
:10257C0018461037BD4680BD80B584B000AFF860FA
:10258C00B9607A6034E0F86800F03EF80346002B3E
:10259C0001D0012334E0BB68B3F1FF3F28D0FFF733
:1025AC00BDF802467B68D31ABA689A4202D3BB685C
:1025BC00002B1DD1FB681B685B6903F00403042B23
:1025CC0016D0FB6800221A63FB68202283F83D209A
:1025DC00FB68002283F83E20FB681B6C43F0200252
:1025EC00FB681A64FB68002283F83C20012307E097
:1025FC00FB681B685B6903F00403042BC3D1002345
:10260C0018461037BD4680BD80B483B000AF7860EB
:10261C007B681B685B6903F48063B3F5806F1BD127
:10262C007B681B686FF480625A617B6800221A63B6
:10263C007B68202283F83D207B68002283F83E20B3
:10264C007B681B6C43F004027B681A647B68002275
:10265C0083F83C20012300E0002318460C37BD46CC
:10266C0080BC704780B586B000AF78607B68002B6B
:10267C0001D101236CE27B681B6803F00103002B82
:10268C0000F08780924B5B6803F00C03042B0CD09A
:10269C008F4B5B6803F00C03082B12D18C4B5B68DF
:1026AC0003F48033B3F5803F0BD1894B1B6803F4E3
:1026BC000033002B6CD07B685B68002B68D1012346
:1026CC0046E27B685B68B3F5803F06D1804B1B68A4
:1026DC007F4A43F4803313602EE07B685B68002BE9
:1026EC000CD17B4B1B687A4A23F480331360784BF4
:1026FC001B68774A23F4802313601DE07B685B68BA
:10270C00B3F5A02F0CD1724B1B68714A43F4802394
:10271C0013606F4B1B686E4A43F4803313600BE0FD
:10272C006B4B1B686A4A23F480331360684B1B683D
:10273C00674A23F4802313607B685B68002B13D0FB
:10274C00FEF7ECFF386108E0FEF7E8FF02463B6954
:10275C00D31A642B01D90323FAE15D4B1B6803F4F4
:10276C000033002BF0D014E0FEF7D8FF386108E0FE
:10277C00FEF7D4FF02463B69D31A642B01D903231D
:10278C00E6E1534B1B6803F40033002BF0D100E05F
:10279C0000BF7B681B6803F00203002B63D04C4B1B
:1027AC005B6803F00C03002B0BD0494B5B6803F008
:1027BC000C03082B1CD1464B5B6803F48033002BB5
:1027CC0016D1434B1B6803F00203002B05D07B682A
:1027DC001B69012B01D00123BAE13D4B1B6823F08F
:1027EC00F8027B685B69DB00394913430B603AE004
:1027FC007B681B69002B20D0364B01221A60FEF738
:10280C008DFF386108E0FEF789FF02463B69D31A59
:10281C00022B01D903239BE12D4B1B6803F0020310
:10282C00002BF0D02A4B1B6823F0F8027B685B6905
:10283C00DB00274913430B6015E0264B00221A607E
:10284C00FEF76CFF386108E0FEF768FF02463B6953
:10285C00D31A022B01D903237AE11D4B1B6803F019
:10286C000203002BF0D17B681B6803F00803002BDC
:10287C003AD07B689B69002B19D0174B01221A6048
:10288C00FEF74CFF386108E0FEF748FF02463B6953
:10289C00D31A022B01D903235AE10D4B5B6A03F0C7
:1028AC000203002BF0D0012000F0B8FA1CE00A4B18
:1028BC0000221A60FEF732FF38610FE0FEF72EFFA0
:1028CC0002463B69D31A022B08D9032340E100BF0F
:1028DC000010024000004242800442429E4B5B6A60
:1028EC0003F00203002BE9D17B681B6803F004039F
:1028FC00002B00F0A6800023FB75974BDB6903F0DF
:10290C008053002B0DD1944BDB69934A43F08053D9
:10291C00D361914BDB6903F08053BB60BB6801232F
:10292C00FB758E4B1B6803F48073002B18D18B4BFB
:10293C001B688A4A43F480731360FEF7EFFE38611C
:10294C0008E0FEF7EBFE02463B69D31A642B01D973
:10295C000323FDE0814B1B6803F48073002BF0D044
:10296C007B68DB68012B06D17B4B1B6A7A4A43F0F0
:10297C00010313622DE07B68DB68002B0CD1764BD6
:10298C001B6A754A23F001031362734B1B6A724A6C
:10299C0023F0040313621CE07B68DB68052B0CD16D
:1029AC006D4B1B6A6C4A43F0040313626A4B1B6A3F
:1029BC00694A43F0010313620BE0674B1B6A664ADA
:1029CC0023F001031362644B1B6A634A23F0040374
:1029DC0013627B68DB68002B15D0FEF79FFE386115
:1029EC000AE0FEF79BFE02463B69D31A41F288329D
:1029FC00934201D90323ABE0574B1B6A03F002034C
:102A0C00002BEED014E0FEF789FE38610AE0FEF7E9
:102A1C0085FE02463B69D31A41F28832934201D9B2
:102A2C00032395E04C4B1B6A03F00203002BEED101
:102A3C00FB7D012B05D1484BDB69474A23F08053C2
:102A4C00D3617B68DB69002B00F08180424B5B68B3
:102A5C0003F00C03082B61D07B68DB69022B46D199
:102A6C003F4B00221A60FEF759FE386108E0FEF772
:102A7C0055FE02463B69D31A022B01D9032367E0AA
:102A8C00354B1B6803F00073002BF0D17B681B6A7D
:102A9C00B3F5803F08D1304B5B6823F400327B6880
:102AAC009B682D4913434B602B4B5B6823F47412CA
:102ABC007B68196A7B685B6A0B43274913434B603D
:102ACC00274B01221A60FEF729FE386108E0FEF759
:102ADC0025FE02463B69D31A022B01D9032337E0AA
:102AEC001D4B1B6803F00073002BF0D02FE01C4B28
:102AFC0000221A60FEF712FE386108E0FEF70EFEA7
:102B0C0002463B69D31A022B01D9032320E0124B56
:102B1C001B6803F00073002BF0D118E07B68DB69B5
:102B2C00012B01D1012313E00B4B5B68FB60FB68AD
:102B3C0003F480327B681B6A9A4206D1FB6803F46B
:102B4C0070127B685B6A9A4201D0012300E000237B
:102B5C0018461837BD4680BD00100240007000407A
:102B6C006000424280B584B000AF786039607B6809
:102B7C00002B01D10123D0E06A4B1B6803F0070343
:102B8C003A689A4210D9674B1B6823F007026549D3
:102B9C003B6813430B60634B1B6803F007033A68F5
:102BAC009A4201D00123B8E07B681B6803F0020352
:102BBC00002B20D07B681B6803F00403002B05D08E
:102BCC00594B5B68584A43F4E06353607B681B685D
:102BDC0003F00803002B05D0534B5B68524A43F4B7
:102BEC0060535360504B5B6823F0F0027B689B682A
:102BFC004D4913434B607B681B6803F00103002BAA
:102C0C0040D07B685B68012B07D1474B1B6803F4F2
:102C1C000033002B15D101237FE07B685B68022B0E
:102C2C0007D1414B1B6803F00073002B09D1012322
:102C3C0073E03D4B1B6803F00203002B01D1012311
:102C4C006BE0394B5B6823F003027B685B683649A9
:102C5C0013434B60FEF762FDF8600AE0FEF75EFD81
:102C6C000246FB68D31A41F28832934201D90323FE
:102C7C0053E02D4B5B6803F00C027B685B689B0098
:102C8C009A42EBD1274B1B6803F007033A689A4230
:102C9C0010D2244B1B6823F0070222493B681343D4
:102CAC000B60204B1B6803F007033A689A4201D073
:102CBC00012332E07B681B6803F00403002B08D06F
:102CCC00194B5B6823F4E0627B68DB68164913439D
:102CDC004B607B681B6803F00803002B09D0124B78
:102CEC005B6823F460527B681B69DB000E4913435D
:102CFC004B6000F021F802460B4B5B681B0903F09C
:102D0C000F030A49CB5C22FA03F3094A1360094BFF
:102D1C001B681846FEF7C0FC002318461037BD464A
:102D2C0080BD00BF0020024000100240943F00080C
:102D3C005C0000206000002080B487B000AF00234E
:102D4C00FB600023BB6000237B6100237B600023BE
:102D5C003B611E4B5B68FB60FB6803F00C03042BB0
:102D6C0002D0082B03D027E0194B3B6127E0FB680E
:102D7C009B0C03F00F03174AD35C7B60FB6803F4D6
:102D8C008033002B10D0114B5B685B0C03F00103FC
:102D9C00114AD35CBB607B680D4A02FB03F2BB6833
:102DAC00B2FBF3F37B6104E07B680C4A02FB03F398
:102DBC007B617B693B6102E0054B3B6100BF3B697A
:102DCC0018461C37BD4680BC704700BF001002403F
:102DDC0000127A00AC3F0008BC3F000800093D001F
:102DEC0080B400AF024B1B681846BD4680BC7047D0
:102DFC005C00002080B500AFFFF7F2FF0246054BE8
:102E0C005B681B0A03F007030349CB5C22FA03F34C
:102E1C00184680BD00100240A43F000880B485B065
:102E2C0000AF78600A4B1B680A4AA2FB03235B0ABB
:102E3C007A6802FB03F3FB6000BFFB685A1EFA6062
:102E4C00002BF9D100BF00BF1437BD4680BC7047C2
:102E5C005C000020D34D621080B582B000AF78606A
:102E6C007B68002B01D1012341E07B6893F83D3056
:102E7C00DBB2002B06D17B68002283F83C207868FB
:102E8C00FEF720FB7B68022283F83D207B681A68E2
:102E9C007B6804331946104600F05CFA7B6801220B
:102EAC0083F846207B68012283F83E207B68012250
:102EBC0083F83F207B68012283F840207B68012245
:102ECC0083F841207B68012283F842207B68012231
:102EDC0083F843207B68012283F844207B6801221D
:102EEC0083F845207B68012283F83D200023184697
:102EFC000837BD4680BD000080B485B000AF786057
:102F0C007B6893F83D30DBB2012B01D001233AE012
:102F1C007B68022283F83D207B681B68DA687B683B
:102F2C001B6842F00102DA607B681B68184A934206
:102F3C000ED07B681B68B3F1804F09D07B681B688F
:102F4C00144A934204D07B681B68134A934211D1F4
:102F5C007B681B689B6803F00703FB60FB68062B10
:102F6C0010D07B681B681A687B681B6842F00102F2
:102F7C001A6007E07B681B681A687B681B6842F064
:102F8C0001021A60002318461437BD4680BC7047F6
:102F9C00002C0140000400400008004080B584B0C3
:102FAC0000AF78607B681B68DB68FB607B681B6824
:102FBC001B69BB60BB6803F00203002B20D0FB68CD
:102FCC0003F00203002B1BD07B681B686FF002021E
:102FDC001A617B6801221A777B681B689B6903F076
:102FEC000303002B03D0786800F098F905E07868AB
:102FFC0000F08BF9786800F09AF97B6800221A7758
:10300C00BB6803F00403002B20D0FB6803F004031F
:10301C00002B1BD07B681B686FF004021A617B6865
:10302C0002221A777B681B689B6903F44073002BA0
:10303C0003D0786800F072F905E0786800F065F963
:10304C00786800F074F97B6800221A77BB6803F08B
:10305C000803002B20D0FB6803F00803002B1BD0C7
:10306C007B681B686FF008021A617B6804221A7770
:10307C007B681B68DB6903F00303002B03D07868C3
:10308C0000F04CF905E0786800F03FF9786800F042
:10309C004EF97B6800221A77BB6803F01003002BF3
:1030AC0020D0FB6803F01003002B1BD07B681B683F
:1030BC006FF010021A617B6808221A777B681B6814
:1030CC00DB6903F44073002B03D0786800F026F919
:1030DC0005E0786800F019F9786800F028F97B6849
:1030EC0000221A77BB6803F00103002B0CD0FB689D
:1030FC0003F00103002B07D07B681B686FF0010203
:10310C001A617868FEF790F8BB6803F08003002B17
:10311C000CD0FB6803F08003002B07D07B681B6886
:10312C006FF080021A61786800F07FFABB6803F0D8
:10313C004003002B0CD0FB6803F04003002B07D09E
:10314C007B681B686FF040021A61786800F0F8F831
:10315C00BB6803F02003002B0CD0FB6803F02003AA
:10316C00002B07D07B681B686FF020021A6178680F
:10317C0000F052FA00BF1037BD4680BD80B584B058
:10318C0000AF786039600023FB737B6893F83C30A8
:10319C00012B01D10223B4E07B68012283F83C208F
:1031AC007B68022283F83D207B681B689B68BB60B0
:1031BC00BB6823F07703BB60BB6823F47F43BB6021
:1031CC007B681B68BA689A603B681B68B3F5005F44
:1031DC003ED0B3F5005F00F28780B3F5805F00F05E
:1031EC008680B3F5805F7FD8702B1AD0702B7BD87C
:1031FC00602B50D0602B77D8502B3CD0502B73D8F1
:10320C00402B58D0402B6FD8302B64D0302B6BD840
:10321C00202B60D0202B67D8002B5CD0102B5AD0E1
:10322C0062E07B6818683B6899683B685A683B6841
:10323C00DB6800F074F97B681B689B68BB60BB683B
:10324C0043F07703BB607B681B68BA689A604FE0F9
:10325C007B6818683B6899683B685A683B68DB6810
:10326C0000F05DF97B681B689A687B681B6842F408
:10327C0080429A603CE07B6818683B6859683B6800
:10328C00DB681A4600F0D4F87B681B68502118469E
:10329C0000F02BF92CE07B6818683B6859683B6898
:1032AC00DB681A4600F0F2F87B681B686021184650
:1032BC0000F01BF91CE07B6818683B6859683B6898
:1032CC00DB681A4600F0B4F87B681B68402118468E
:1032DC0000F00BF90CE07B681A683B681B68194618
:1032EC00104600F002F903E00123FB7300E000BF7D
:1032FC007B68012283F83D207B68002283F83C2008
:10330C00FB7B18461037BD4680BD80B483B000AF40
:10331C00786000BF0C37BD4680BC704780B483B06A
:10332C0000AF786000BF0C37BD4680BC704780B4DE
:10333C0083B000AF786000BF0C37BD4680BC7047CF
:10334C0080B483B000AF786000BF0C37BD4680BC42
:10335C007047000080B485B000AF786039607B683E
:10336C001B68FB607B682F4A93420BD07B68B3F1E0
:10337C00804F07D07B682C4A934203D07B682B4A42
:10338C00934208D1FB6823F07003FB603B685B68D9
:10339C00FA681343FB607B68224A93420BD07B682C
:1033AC00B3F1804F07D07B681F4A934203D07B68F0
:1033BC001E4A934208D1FB6823F44073FB603B68C0
:1033CC00DB68FA681343FB60FB6823F080023B6800
:1033DC005B691343FB607B68FA681A603B689A6808
:1033EC007B68DA623B681A687B689A627B680D4A74
:1033FC00934203D13B681A697B681A637B6801228C
:10340C005A617B681B6903F00103002B05D07B68B4
:10341C001B6923F001027B681A6100BF1437BD469B
:10342C0080BC7047002C01400004004000080040A4
:10343C0080B487B000AFF860B9607A60FB681B6A33
:10344C007B61FB681B6A23F00102FB681A62FB6854
:10345C009B693B613B6923F0F0033B617B681B017B
:10346C003A6913433B617B6923F00A037B617A69F8
:10347C00BB6813437B61FB683A699A61FB687A69A4
:10348C001A6200BF1C37BD4680BC704780B487B041
:10349C0000AFF860B9607A60FB681B6A7B61FB68FF
:1034AC001B6A23F01002FB681A62FB689B693B6184
:1034BC003B6923F470433B617B681B033A691343FC
:1034CC003B617B6923F0A0037B61BB681B017A69BC
:1034DC0013437B61FB683A699A61FB687A691A62EB
:1034EC0000BF1C37BD4680BC704780B485B000AFB0
:1034FC00786039607B689B68FB60FB6823F0700325
:10350C00FB603A68FB68134343F00703FB607B687E
:10351C00FA689A6000BF1437BD4680BC704780B40F
:10352C0087B000AFF860B9607A603B60FB689B685D
:10353C007B617B6923F47F437B613B681A027B6868
:10354C001A43BB6813437A6913437B61FB687A693E
:10355C009A6000BF1C37BD4680BC704780B485B0F4
:10356C0000AF786039607B6893F83C30012B01D157
:10357C00022346E07B68012283F83C207B68022210
:10358C0083F83D207B681B685B68FB607B681B686D
:10359C009B68BB60FB6823F07003FB603B681B6897
:1035AC00FA681343FB607B681B68FA685A607B6897
:1035BC001B68164A93420ED07B681B68B3F1804F90
:1035CC0009D07B681B68124A934204D07B681B6845
:1035DC00104A93420CD1BB6823F08003BB603B685C
:1035EC005B68BA681343BB607B681B68BA689A60F7
:1035FC007B68012283F83D207B68002283F83C2005
:10360C00002318461437BD4680BC7047002C01407F
:10361C00000400400008004080B483B000AF786024
:10362C0000BF0C37BD4680BC704780B483B000AF80
:10363C00786000BF0C37BD4680BC7047014B1868E2
:10364C00704700BF6800002070B500260C4D0D4C73
:10365C00641BA410A64209D100F070FC00260A4D90
:10366C000A4C641BA410A64205D170BD55F8043B4E
:10367C0098470136EEE755F8043B98470136F2E7D8
:10368C00F43F0008F43F0008F43F0008F83F00083E
:10369C0003460244934200D1704703F8011BF9E73B
:1036AC000CB430B5174B0C1E1D689DB008DA8B237B
:1036BC004FF0FF302B601DB0BDE8304002B07047BA
:1036CC004FF40273ADF814300CBF234604F1FF33F2
:1036DC00049307934FF6FF7302900690ADF81630E3
:1036EC00284621AB209A02A9019300F069F8431CEB
:1036FC00BCBF8B232B60002CDDD00022029B1A70E8
:10370C00D9E700BF680000202DE9F0478E6882469B
:10371C009E420C4690461F4638D88A8912F4906F08
:10372C0032D0256809690133A5EB010965694B4461
:10373C0005EB450505EBD5756D109D4238BF1D4653
:10374C00530531D5294600F053FB064650B90C23DE
:10375C004FF0FF30CAF80030A38943F04003A38137
:10376C00BDE8F0874A46216900F0CEFAA38923F41C
:10377C00906343F08003A38126614E4426603E464D
:10378C006561A5EB0905A560BE4200D93E463246EF
:10379C004146206800F0C6FAA36822689B1B32449D
:1037AC000020A3602260DBE72A4600F07BFB064684
:1037BC000028E1D15046216900F0CEFAC7E700009D
:1037CC002DE9F04F98468B8907461B060D4614468B
:1037DC009DB00ED50B6963B9402100F009FB286040
:1037EC00286120B90C233B604FF0FF30D1E040231F
:1037FC006B610023099320238DF8293030234FF07F
:10380C000109CDF80C80DFF8A4818DF82A3023460D
:10381C009A4613F8012B0AB1252AF9D1BAEB040BFD
:10382C000BD05B46224629463846FFF76DFF013028
:10383C0000F0AA80099A5A4409929AF80030002B99
:10384C0000F0A28000234FF0FF32CDE905230AF1EE
:10385C00010A049307938DF853301A9354460522AA
:10386C0014F8011B514800F041FA049AD8B9D0065B
:10387C0044BF20238DF85330110744BF2B238DF800
:10388C0053309AF800302A2B15D0544600204FF0B4
:10389C000A0C079A214611F8013B303B092B4ED9F3
:1038AC00B0B1079214E0A0EB080309FA03F3134339
:1038BC00A2460493D2E7039B191D1B680391002BAE
:1038CC00BBBF5B4242F0020207930793B8BF04925E
:1038DC0023782E2B0CD163782A2B35D1039B023401
:1038EC001A1D1B680392002BB8BF4FF0FF330593D2
:1038FC00DFF8C8A003225046217800F0F7F940B158
:10390C004023A0EB0A0003FA00F0049B01340343AC
:10391C00049314F8011B062225488DF8281000F09A
:10392C00E5F9002838D0234B1BBB039B073323F04E
:10393C00070308330393099B3344099367E70C4649
:10394C0001200CFB0232A5E700234FF00A0C1946AC
:10395C0001340593204610F8012B303A092A03D97B
:10396C00002BC5D00591C3E7044601230CFB0121B4
:10397C00F0E703AB00932A4638460F4B04A9AFF38C
:10398C000080421C0646D6D1AB895B063FF52CAFB6
:10399C0009981DB0BDE8F08F03AB00932A4638465A
:1039AC00054B04A900F07CF8EBE700BFBE3F000814
:1039BC00C83F00080000000015370008C43F00088D
:1039CC002DE9F047164699468A680B6907469342DB
:1039DC00B8BF1346336091F843200C46DDF82080C5
:1039EC000AB1013333602368990642BF336802334E
:1039FC003360256815F0060506D104F1190AE36851
:103A0C0032689B1AAB4228DC94F84320131E2268C0
:103A1C0018BF012392062DD44946384604F14302BF
:103A2C00C047013020D02368E56803F00603042B5F
:103A3C0018BF002532684FF00006A36808BFAD1A06
:103A4C00226908BF25EAE5759342C4BF9B1AED189D
:103A5C001A34B5421AD1002008E0012352464946D7
:103A6C003846C047013003D14FF0FF30BDE8F08736
:103A7C000135C4E73020E11881F843005A1C94F852
:103A8C0045102244023382F84310C5E70123224635
:103A9C0049463846C0470130E6D00136D9E7000028
:103AAC002DE9FF470C46277E9146782F80469A4693
:103ABC000C9904F1430207D8622F0AD8002F00F0AA
:103ACC00D980582F00F0A48004F1420684F842708B
:103ADC003AE0A7F16303152BF6D801A050F823F0B8
:103AEC00453B0008593B0008D53A0008D53A000878
:103AFC00D53A0008D53A0008593B0008D53A0008D9
:103B0C00D53A0008D53A0008D53A0008673C0008B9
:103B1C00893B0008493C0008D53A0008D53A000812
:103B2C00893C0008D53A0008893B0008D53A0008C2
:103B3C00D53A0008513C00080B6804F142061A1DE6
:103B4C001B680A6084F842300123A4E025680868E9
:103B5C002E0600F104030AD505680B60002D03DA6C
:103B6C002D236D4284F843300A235E4819E015F08A
:103B7C00400F05680B6018BF2DB2EFE70B68256886
:103B8C00181D0860280601D51D6802E06906FBD5E2
:103B9C001D886F2F0CBF08230A235248002184F87C
:103BAC0043106668002EA8BF2168A660A4BF21F050
:103BBC00040121600DB9002E4DD01646B5FBF3F172
:103BCC0003FB1157C75D06F8017D2F46BB420D461E
:103BDC00F4D9082B0BD12368DF0708D5236961685A
:103BEC009942DEBF302306F8013C06F1FF36921BEA
:103BFC0022614B4621464046CDF800A003AAFFF7B0
:103C0C00DFFE01304CD14FF0FF3004B0BDE8F0873F
:103C1C00344884F845700E68236856F8045B1F0618
:103C2C000E6014D5D90744BF43F0200323601DB99F
:103C3C00236823F0200323601023AFE7236843F0AD
:103C4C00200323607823284884F84530E3E75E0698
:103C5C0048BFADB2E6E71646BBE70B6826681D1DEC
:103C6C0060690D6035061B6801D5186002E07106AD
:103C7C00FBD51880002316462361BAE70B681A1D82
:103C8C000A601E6800213046626800F02FF808B107
:103C9C00801B606063682361002384F84330A8E7CD
:103CAC003246494640462369D0470130ABD02368A1
:103CBC009B0713D4E068039B9842B8BF1846A4E74F
:103CCC000123324649464046D04701309BD001354E
:103CDC00E36803995B1AAB42F2DCEBE7002504F1D5
:103CEC001906F5E7CF3F0008E03F0008034610B582
:103CFC00C9B202449342184601D1002003E0047873
:103D0C0001338C42F6D110BD0A44914200F1FF33CD
:103D1C0000D1704710B511F8014B914203F8014FD7
:103D2C00F9D110BD884210B501EB020402D98442CE
:103D3C00234607D8431EA14208D011F8012B03F8E3
:103D4C00012FF8E7014602448A4200D110BD13F856
:103D5C00014D02F8014DF7E738B50546002943D06F
:103D6C0051F8043C0C1F002BB8BFE41800F0D0F83D
:103D7C001E4A1368104633B9636014602846BDE8C8
:103D8C00384000F0CBB8A3420AD92168621893429C
:103D9C0001BF1A685B685218226063600460EDE72B
:103DAC001A465B680BB1A342FAD911685018A042AD
:103DBC000BD120680144501883421160DED1186881
:103DCC005B68014411605360D8E702D90C232B6067
:103DDC00D4E7206821188B4201BF19685B68091869
:103DEC00216063605460C9E738BD00BF58010020F2
:103DFC00F8B5CD1C25F0030508350C2D38BF0C2566
:103E0C00002D064601DBA94203D90C2333600020A8
:103E1C00F8BD00F07DF821490A6814469CB9204F82
:103E2C003B6823B92146304600F062F838602946D9
:103E3C00304600F05DF8431C23D10C233046336030
:103E4C0000F06CF8E3E723685B1B17D40B2B03D94A
:103E5C0023601C44256004E06368A2420CBF0B6025
:103E6C005360304600F05AF804F10B00231D20F08B
:103E7C000700C21ACCD01B1AA350C9E722466468AB
:103E8C00CCE7C41C24F00304A042E3D0211A304632
:103E9C0000F02EF80130DDD1CFE700BF5801002033
:103EAC005C010020F8B5074614460E4621B91146B0
:103EBC00BDE8F840FFF79CBF22B9FFF74DFF254640
:103ECC002846F8BD00F030F8A0420FD22146384603
:103EDC00FFF78EFF05460028F2D031462246FFF749
:103EEC0013FF31463846FFF737FFE9E73546E7E77A
:103EFC0038B50023054D044608462B60FDF75AFAE9
:103F0C00431C02D12B6803B1236038BD1C02002076
:103F1C00014800F011B800BF24020020014800F055
:103F2C000CB800BF2402002051F8043C181F002BD1
:103F3C00BCBF0B58C018704770477047F8B500BF2E
:103F4C00F8BC08BC9E467047F8B500BFF8BC08BC6E
:043F5C009E467047C6
:103F60004C616E65315F74696D653A25303264006D
:103F70004C616E65325F74696D653A25303264005C
:103F80004D6F64653A256420546D703A2530326473
:103F900020202000000000000000000001020304B7
:103FA00006070809000000000102030402030405DB
:103FB000060708090A0B0C0D0E0F10100102232D25
:103FC000302B2000686C4C00656667454647003022
:103FD000313233343536373839414243444546006F
:103FE000303132333435363738396162636465666F
:043FF00000000000CD
:043FF400310100088F
:043FF8000D010008AF
:103FFC0001000000000000000000000000000000B4
:10400C0001000000000000000000000000000000A3
:10401C000100000000000000000000000000000093
:10402C000100000000000000000000000000000083
:10403C00010000000100000005000000030000006A
:10404C0002000000050000000300000000127A00CE
:10405C0010000000010000006C00002000000000B7
:10406C000000000000000000000000000000000044
:10407C000000000000000000000000000000000034
:10408C000000000000000000000000000000000024
:10409C000000000000000000000000000000000014
:1040AC000000000000000000000000000000000004
:0C40BC00000000000000000000000000F8
:040000050800162DAC
:00000001FF
